{
    "contractName": "API",
    "abi": [
        {
            "constant": true,
            "inputs": [],
            "name": "responseString",
            "outputs": [
                {
                    "name": "",
                    "type": "string"
                }
            ],
            "payable": false,
            "stateMutability": "pure",
            "type": "function"
        }
    ],
    "bytecode": "608060405234801561001057600080fd5b5061012a806100206000396000f300608060405260043610603e5763ffffffff7c0100000000000000000000000000000000000000000000000000000000600035041663637a139581146043575b600080fd5b348015604e57600080fd5b50605560c7565b6040805160208082528351818301528351919283929083019185019080838360005b83811015608d5781810151838201526020016077565b50505050905090810190601f16801560b95780820380516001836020036101000a031916815260200191505b509250505060405180910390f35b60408051808201909152600981527febb098ed9998eab09200000000000000000000000000000000000000000000006020820152905600a165627a7a7230582010e562af429627992cf5a5c032a0775af077210be856594e26c7c855ca1590eb0029",
    "sourcePath": "c:/dev/klaytn/sample/contracts/API.sol",
    "compiler": {
        "name": "solc",
        "version": "0.4.26+commit.4563c3fc"
    },
    "functionHashes": {
        "responseString()": "637a1395"
    },
    "gasEstimates": {
        "creation": {
            "codeDepositCost": "59600",
            "executionCost": "111",
            "totalCost": "59711"
        },
        "external": {
            "responseString()": "infinite"
        }
    }
}